:100000000080001071010000ED010000F50100000A
:10001000FD010000050200000D02000000000000CC
:1000200000000000000000000000000015020000B9
:100030001D02000000000000250200005D0300001A
:1000400035020000350200003502000035020000D4
:1000500035020000350200003502000035020000C4
:1000600035020000350200003502000035020000B4
:1000700035020000350200003502000035020000A4
:100080003502000035020000350200003502000094
:100090003502000035020000350200003502000084
:1000A0003502000035020000350200003502000074
:1000B0003502000035020000350200003502000064
:1000C000350200003502000035020000AC130000CC
:1000D0000000001008000000AC13000000C0072062
:1000E00000000000080000100C03000000C0072002
:1000F0000000000080B489B000AFF860B9607A6099
:10010000BB68FB61FB68BB6100237B610AE0BA69E5
:10011000131DBB61FB69191DF96112681A607B69C7
:1001200004337B617A697B689A42F0D300BF00BFD9
:100130002437BD4680BC704780B485B000AF78607E
:1001400039607B68FB600023BB6007E0FB681A1D19
:10015000FA6000221A60BB680433BB60BA683B686F
:100160009A42F3D300BF00BF1437BD4680BC70472E
:1001700080B584B000AF1A4BFB6013E0FB681A1D1A
:10018000FA601B683B60FB681A1DFA601B68BB6065
:10019000FB681A1DFA601B687B607A68B96838686A
:1001A000FFF7A8FFFB680F4A9342E7D30DE0FB6817
:1001B0001A1DFA601B68BB60FB681A1DFA601B6899
:1001C0007B607968B868FFF7B7FFFB68064A93421F
:1001D000EDD300F033F800F01DFE00BFFDE700BFD7
:1001E000CC000000E4000000F400000080B400AF88
:1001F00000BFFDE780B400AF00BFFDE780B400AFF3
:1002000000BFFDE780B400AF00BFFDE780B400AFE2
:1002100000BFFDE780B400AF00BFFDE780B400AFD2
:1002200000BFFDE780B400AF00BFFDE780B400AFC2
:1002300000BFFDE780B400AF00BFFDE780B582B02E
:1002400000AF054B7B60054A7B681A6000F0EBFA53
:1002500000BF0837BD4680BD08ED00E0000000008B
:1002600080B483B000AF03463960FB7197F9073063
:10027000002B0BDA3B68DAB20C49FB7903F00F0371
:10028000043BD200D2B20B441A7609E03B68DAB2E2
:10029000074997F90730D200D2B20B4483F8002304
:1002A00000BF0C37BD4680BC704700BF00ED00E0CA
:1002B00000E100E080B582B000AF78607B68013B70
:1002C000B3F1807F01D301230FE00A4A7B68013B31
:1002D00053601F214FF0FF30FFF7C2FF054B002294
:1002E0009A60044B07221A60002318460837BD465F
:1002F00080BD00BF10E000E080B582B000AF786044
:100300000F2000F08DFB00BF0837BD4680BD80B5D3
:1003100082B000AF78600F2000F082FB00BF08378A
:10032000BD4680BD80B483B000AF78600B46FB70E3
:100330001346BB70FB785B017A6813441968BB787D
:1003400001229A40FB785B01786803440A431A60F3
:1003500000BF0C37BD4680BC7047FFFF80B500AFC3
:10036000084B1B680133074A1360064B1B68632B5D
:1003700005D9054800F0B6F9024B00221A6000BF0B
:1003800080BD00BF080000100000001080B400AF66
:10039000054BAA22C3F88C20034B5522C3F88C20AE
:1003A00000BFBD4680BC704700C00F4080B582B022
:1003B00000AF0223FB801923BB8003237B801D4BEE
:1003C0000122C3F88020FFF7E1FF1A4B0022C3F897
:1003D0008020FFF7DBFF174B0122C3F80C21FB88BD
:1003E000013B1A04BB88013B1A43124BC3F884201B
:1003F000FFF7CCFF0F4B0122C3F88020FFF7C6FFA9
:100400007B885A1E0B4BC3F8042100BF094BD3F85D
:10041000883003F08063002BF8D0064B0322C3F82A
:100420008020FFF7B3FF00F007FA00BF0837BD4692
:1004300080BD00BF00C00F4080B500AFFFF7B6FF22
:100440002148FFF759FF2148FFF761FF2048FFF7D8
:100450005EFF01211F4800F013F902211D4800F042
:100460000FF903211B4800F00BF91B4BD3F8C430E4
:10047000194A43F40043C2F8C43008231A22032166
:10048000114800F07FFB1A2203211048FFF74AFFB2
:100490000823192203210C4800F074FB19220321C0
:1004A0000A48FFF73FFF0D4B1B680D4AA2FB0323D1
:1004B0009B091846FFF7FEFE0346002B01D000BF44
:1004C000FDE730BF00BFFCE700C0024000C00920CC
:1004D00060C009200000001000C00F402C01001077
:1004E000D34D621080B400AF2E4B4FF0C0629A61C2
:1004F00000BF00BF00BF00BF00BF00BF00BF00BF04
:1005000000BF00BF00BF00BF00BF00BF00BF00BFF3
:1005100000BF00BF00BF00BF00BF00BF00BF00BFE3
:1005200000BF00BF00BF00BF00BF00BF00BF00BFD3
:100530001C4B4FF0C062DA6100BF00BF00BF00BFBC
:1005400000BF00BF00BF00BF00BF00BF00BF00BFB3
:1005500000BF00BF00BF00BF00BF00BF00BF00BFA3
:1005600000BF00BF00BF00BF00BF00BF00BF00BF93
:1005700000BF00BF00BF00BF00BF00BF00BF00BF83
:1005800000BF00BF00BF00BF00BF00BF00BF00BF73
:1005900000BF00BF00BF00BF00BF00BF00BFBD461F
:1005A00080BC704760C0092080B400AF334B4FF06F
:1005B000C0629A6100BF00BF00BF00BF00BF00BFA4
:1005C00000BF00BF00BF00BF00BF00BF00BF00BF33
:1005D00000BF00BF00BF00BF00BF00BF00BF00BF23
:1005E00000BF00BF00BF00BF00BF00BF00BF00BF13
:1005F00000BF00BF00BF00BF00BF00BF00BF00BF03
:1006000000BF00BF00BF00BF00BF00BF00BF00BFF2
:1006100000BF00BF00BF00BF00BF00BF00BF00BFE2
:1006200000BF00BF00BF00BF00BF00BF00BF00BFD2
:1006300000BF00BF00BF00BF00BF00BF00BF00BFC2
:1006400000BF00BF00BF00BF00BF00BF0B4B4FF09B
:10065000C062DA6100BF00BF00BF00BF00BF00BFC3
:1006600000BF00BF00BF00BF00BF00BF00BF00BF92
:1006700000BF00BF00BFBD4680BC704760C00920FE
:1006800080B483B000AF786039603B68002B24DD14
:100690007B681B791A463B6893421EDC7B681968AD
:1006A0003A6813465B001344033B0B44FF221A7065
:1006B0007B6819683A6813465B001344033B0B449C
:1006C00000225A707B6819683A6813465B0013442D
:1006D000033B0B4400229A7000E000BF0C37BD467C
:1006E00080BC704780B586B000AF78600023FB8285
:1006F00051E07B681968FA8A13465B001344CA18F4
:1007000007F10C031188927819809A7000237B7589
:100710000FE07B7B5BB2002B02DAFFF745FF01E0C5
:10072000FFF7E0FE7B7B5B00DBB27B737B7D0133FD
:100730007B757B7D072BECD900233B750FE03B7B62
:100740005BB2002B02DAFFF72FFF01E0FFF7CAFED2
:100750003B7B5B00DBB23B733B7D01333B753B7DF9
:10076000072BECD90023FB740FE0BB7B5BB2002BA3
:1007700002DAFFF719FF01E0FFF7B4FEBB7B5B0075
:10078000DBB2BB73FB7C0133FB74FB7C072BECD926
:10079000FB8A0133FB827B681B791A46FB8A9342F2
:1007A000A7D300233B8206E000BF00BF00BF00BF0D
:1007B0003B8A01333B823B8AB3F5167FF4D300BFFB
:1007C00000BF1837BD4680BD80B485B000AF03467A
:1007D000FB71084B1B68C3F30B03FB60FB791A0327
:1007E0000449FB6813430B6000BF1437BD4680BC4F
:1007F000704700BF00C00F4080B500AF152203490D
:10080000034800F024FA00BF80BD00BF5013000071
:1008100000C0024080B500AF00F0B4FA0420FFF73A
:10082000D3FF00BF80BD80B500AFFFF7E5FFFFF746
:10083000F1FF00BF80BDFFFF80B500AF00F096F96B
:100840000346024A136000BF80BD00BF2C010010A8
:1008500080B400AF064BD3F8883003F08073002BD0
:1008600014BF01230023DBB21846BD4680BC70478D
:1008700000C00F4080B400AF064BD3F8883003F0BF
:100880000073002B14BF01230023DBB21846BD46C2
:1008900080BC704700C00F4080B483B000AF0346F7
:1008A000FB71094AFB795B0113448C33AA221A605D
:1008B000054AFB795B0113448C3355221A6000BF53
:1008C0000C37BD4680BC704700C00F4080B400AFFD
:1008D000054BD3F80C31DBB203F00303DBB218464F
:1008E000BD4680BC704700BF00C00F4080B400AF61
:1008F000024B1B681846BD4680BC70474813000079
:1009000080B400AF024B1846BD4680BC704700BFA4
:1009100000093D0080B400AF024B1B681846BD467D
:1009200080BC70474C13000080B500AF00F0C2F8E7
:100930000346184680BDFFFF80B584B000AF034674
:100940003960FB710C4AFB7904335B0113441B686B
:10095000FB60FA683B681343FB60074AFB7904338A
:100960005B011344FA681A60FB791846FFF794FF9D
:1009700000BF1037BD4680BD00C00F4080B584B0B9
:1009800000AF03463960FB710D4AFB7904335B010C
:1009900013441B68FB603B68DB43FA681340FB6051
:1009A000074AFB7904335B011344FA681A60FB7948
:1009B0001846FFF771FF00BF1037BD4680BD00BF6E
:1009C00000C00F4080B586B000AF0346B9607A60C2
:1009D000FB73FB7B002B05D17B681B04BA681343B8
:1009E0007B6104E07B685B01BA6813437B610B4A5F
:1009F000FB7B04335B01134404337A691A60074AB2
:100A0000FB7B04335B01134401221A60FB7B184615
:100A1000FFF742FF00BF1837BD4680BD00C00F4042
:100A200080B485B000AF0346FB71FB79FB60084BD7
:100A3000D3F8C4300121FA6801FA02F21146044ADF
:100A40000B43C2F8C43000BF1437BD4680BC7047AA
:100A500000C00F4080B582B000AFFFF70BFF034628
:100A6000002B02D00123FB7101E00023FB71FB7915
:100A700018460837BD4680BD80B483B000AF7860AB
:100A8000044A7B68C2F8043100BF0C37BD4680BC05
:100A9000704700BF00C00F4080B400AF044BD3F8D4
:100AA0000431DBB201331846BD4680BC704700BF3D
:100AB00000C00F4080B500AFFFF708FF0346022BD0
:100AC0000ED0022B10DC002B02D0012B04D00BE047
:100AD000FFF716FF034608E0FFF708FF034604E0B0
:100AE000FFF718FF034600E00023184680BDFFFF14
:100AF00080B584B000AF0023FB60FFF7A9FE03467A
:100B0000002B18D00E4BD3F88430C3F30E030133FF
:100B1000BB600B4BD3F884301B0CDBB201337B6022
:100B2000FFF702FF0246BB6802FB03F35A007B6833
:100B3000B2FBF3F3FB60FB6818461037BD4680BD7F
:100B400000C00F4080B500AFFFF784FF0346002BC5
:100B500005D0012B07D1FFF7CBFF034604E0FFF7D9
:100B6000A9FF034600E00023184680BD98B500AFFA
:100B7000FFF7E8FF0446FFF78FFF0346B4FBF3F3EC
:100B8000184698BD80B586B002AFF8607B600B4612
:100B9000FB721346BB727B6898087B68DBB203F07C
:100BA0000303DBB2BA7AF97A00930346F86800F0DF
:100BB00004F800BF1037BD4680BD80B487B000AFD9
:100BC000F8607B600B46FB721346BB72BB7A03F086
:100BD0000F03DBB25B00FB75FB7A5B00DAB2BB7A1A
:100BE0001B09DBB21344BB75BA7DFB6853F82220A6
:100BF000FB7D032101FA03F3DB4313403B6197F8CC
:100C00002020FB7D02FA03F31946BA7D3B691943A4
:100C1000FB6843F82210BA7DFB68103253F822209B
:100C2000FB7D032101FA03F3DB4313403B61FB7DB2
:100C30007A6802FA03F1BA7D3B691943FB68103206
:100C400043F8221000BF1C37BD4680BC704780B5FA
:100C500086B000AFF860B9607A6000237B611FE066
:100C60007B699B00BA6813441B78C3F30203DBB2B1
:100C700019467B699B00BA6813441B78C3F3C4030D
:100C8000DBB218467B699B00BA6813441B68C3F348
:100C900017230246F868FFF775FF7B6901337B6114
:100CA0007A697B689A42DBD300BF00BF1837BD4624
:100CB00080BDFFFF80B400AF064BD3F8883003F04F
:100CC0008073002B14BF01230023DBB21846BD46FE
:100CD00080BC704700C00F4080B400AF064BD3F813
:100CE000883003F08063002B14BF01230023DBB2A4
:100CF0001846BD4680BC704700C00F4080B400AFAE
:100D0000064BD3F8883003F00073002B14BF012387
:100D10000023DBB21846BD4680BC704700C00F40C0
:100D200080B400AF054BD3F8A031044A43F0200350
:100D3000C2F8A03100BFBD4680BC704700C00F4064
:100D400080B400AF064BD3F8A03103F04003002B72
:100D500014BF01230023DBB21846BD4680BC704798
:100D600000C00F4080B483B000AF0346FB71044A5B
:100D7000FB79C2F80C3100BF0C37BD4680BC704710
:100D800000C00F4080B500AFFFF7B8FF0346002B4F
:100D900003D002210020FFF7F1FDFFF78BFF034690
:100DA000002B03D001210020FFF7E8FDFFF7C8FF6B
:100DB000034683F00103DBB2002B01D0FFF7B0FF45
:100DC00000BFFFF7BDFF034683F00103DBB2002B3A
:100DD000F7D10020FFF750FE0120FFF7C3FF0022EC
:100DE0000F210020FFF7EEFD01210020FFF7A4FDF9
:100DF0000320FFF741FE00BFFFF76EFF034683F0BD
:100E00000103DBB2002BF7D102210020FFF794FD94
:100E100000BF80BD08B500F005F8BDE80840FFF749
:100E20000BBBFFFF10B5174A1749002000F055F81B
:100E30004FF480734FF480620021124800F02EF8C6
:100E4000124A1349012000F048F84FF480734FF420
:100E5000806200210D4800F021F80E4B1B68022B28
:100E60000EDD0D4A0A49022000F037F8BDE81040B7
:100E70004FF480734FF480620021074800F00EB8F1
:100E800010BD00BF34010010A41300007001001059
:100E9000A6130000A8130000AC01001070B5C468D0
:100EA000A50708D0B2F5007F11D0B2F5806F04D04D
:100EB000B2F5807F0BD0012008E0012300F124016E
:100EC000144301610160C361C460002070BD6FF014
:100ED0007F455E1EAE42F3D3EDE770B50D46064684
:100EE0001046144600F02DF82B78722B17D0772B74
:100EF00018D0612B23D1082348F2020215F8011FF4
:100F00002B2912D0622915D01B07E260666104D537
:100F100002220021204600F05FF8204670BD002329
:100F20000122EBE704230222E8E742F0030243F048
:100F30000203E3E742F0040243F00103DEE700248A
:100F4000EBE7F0B5C5680446A90789B022D02A07A7
:100F500018D4D0E9046700F021F8384600F0DFF932
:100F60002B0502D5304600F089F96FF3150515F110
:100F7000A54F07D120226846216A00F0DFF96846B4
:100F800000F0C8F83C220021204600F0F4F80020D0
:100F900009B0F0BD4FF0FF30FAE7FFFFF8B50446A7
:100FA00038B905460A4B0B4E1F68A74205DC284698
:100FB000F8BDBDE8F84000F0E0B8304600F0DDF8DC
:100FC000002818BF4FF0FF3501343C36EDE700BF75
:100FD000A8130000340100102DE9F843C6683B4B0C
:100FE000044633400D4690467BB1D0F814904846F5
:100FF00000F09BF9074640B9B8F1010F09D0B8F1EC
:10100000020F31D0B8F1000F07D002273846BDE8F3
:10101000F883204600F05CF80544002DF5DBB304AE
:1010200004D52368E26A9A4238BFE362A069A84205
:101030000EDC2368E26A934238BF1346226919180E
:10104000891AA94204DB216B00EB010CAC452CDCB6
:101050000023C4E9013346F02006A56226F40326E6
:1010600026F04006E660D1E7484600F05BF900282C
:10107000E26804DA42F080020127E260C6E72168F4
:10108000A369D4F82CC061452CBF5B186344216967
:101090009206A3EB010303D5A26A9342B8BF13469D
:1010A0008342ACBFED182D18B7E72D1AB00744BF27
:1010B000691AA160F10744BF9B1AEB1A2A4448BF82
:1010C0006360226026F02006C8E700BF030010001E
:1010D000C3689A0705D121220D4B4FF0FF301A60EB
:1010E000704703F020021B0309D512B1806A013852
:1010F00070470368826900691344181AF7E70AB158
:10110000806A70470368826900691344181A70473F
:101110003001001010B5044600F006F801462046E4
:10112000BDE8104000F004B9034610B59A071C460C
:1011300015D1234654F8042BA2F1013121EA020112
:1011400011F0803FF5D0D1B299B112F47F4F0ED09B
:1011500012F47F0F14BF23460333013003E01A4615
:1011600012F8011B09B9181A10BD1346DEE7023345
:10117000F3E70133F1E700F0B9B8C36870B513F0D5
:101180000306044611D09B0611D5856A00F08EF83F
:10119000E368204623F44053E36000F00EF8002299
:1011A000064629462046FFF717FF304670BD836983
:1011B00005681D440369ED1AEAE738B50446C368BB
:1011C00005690168C26A23F40020E06003F0820030
:1011D000022802D04FF0FF3038BDDB030CD591421E
:1011E00038BF11468D4209D10023A360E368E56250
:1011F00023F480332560E3600020EDE72246284693
:10120000491B00F003F80028EED0E3E72DE9F04198
:10121000D5688046EB020E461446576912D538460B
:1012200000F080F845F01005A0613846A16900F093
:1012300082F8002819DAE3684FF0FF3043F08003AA
:10124000E36010E00C4B2B40002BEED132464146C0
:10125000384600F076F820F00043F61AA3693344CC
:10126000A3610028E7D1BDE8F08125F4003525F021
:101270001005E560EAE700BF10000200A8B14FF0DA
:10128000805340F80C3C50F8042C72B11368B3F151
:10129000805F0AD150F8083C516803330B4440F892
:1012A000083C936840F8043CEDE77047C36810B50C
:1012B00023F020028169C260826A044691420FD005
:1012C000FFF77BFFE36823F4405323F0100343F060
:1012D0001003E360A36AA3612369E362236010BD86
:1012E00023F4804323F06003C360F8E7034613F060
:1012F000030F0ED101F0FF0141EA012141EA014152
:10130000043A24BF43F8041BB2F10402F9D202F1FB
:101310000402013A24BF03F8011BFAE770474FF0BB
:10132000FF3070474FF0FF3070474FF0FF3070478D
:101330004FF0FF3070474FF0FF3070474FF0FF30F5
:10134000704710467047FFFF001BB7000080000089
:10135000000A0000080A000020080000B809000088
:10136000D00A00000109000009090000210900005D
:1013700041090000490900005109000071090000FD
:10138000790900008109000089090000D9090000DD
:101390001A080000780800002208000080080000F9
:0C13A000880800007200770008000000C0
:0813AC000C00001060000000BD
:040000030000017187
:00000001FF
